{
  "contractName": "KOIOSNFT",
  "abi": [
    {
      "inputs": [
        {
          "internalType": "string",
          "name": "_name",
          "type": "string"
        },
        {
          "internalType": "string",
          "name": "_symbol",
          "type": "string"
        },
        {
          "internalType": "string",
          "name": "_baseURI",
          "type": "string"
        }
      ],
      "stateMutability": "nonpayable",
      "type": "constructor"
    },
    {
      "anonymous": false,
      "inputs": [
        {
          "indexed": false,
          "internalType": "uint256",
          "name": "_templateid",
          "type": "uint256"
        },
        {
          "indexed": false,
          "internalType": "string",
          "name": "_name",
          "type": "string"
        }
      ],
      "name": "NewBadge",
      "type": "event"
    },
    {
      "anonymous": false,
      "inputs": [
        {
          "indexed": true,
          "internalType": "address",
          "name": "_from",
          "type": "address"
        },
        {
          "indexed": true,
          "internalType": "address",
          "name": "_to",
          "type": "address"
        },
        {
          "indexed": true,
          "internalType": "uint256",
          "name": "_tokenId",
          "type": "uint256"
        }
      ],
      "name": "Transfer",
      "type": "event"
    },
    {
      "inputs": [],
      "name": "ADMINTOKEN",
      "outputs": [
        {
          "internalType": "uint256",
          "name": "",
          "type": "uint256"
        }
      ],
      "stateMutability": "view",
      "type": "function",
      "constant": true
    },
    {
      "inputs": [],
      "name": "BADGECREATORTOKEN",
      "outputs": [
        {
          "internalType": "uint256",
          "name": "",
          "type": "uint256"
        }
      ],
      "stateMutability": "view",
      "type": "function",
      "constant": true
    },
    {
      "inputs": [],
      "name": "CONTRACTINFOTOKEN",
      "outputs": [
        {
          "internalType": "uint256",
          "name": "",
          "type": "uint256"
        }
      ],
      "stateMutability": "view",
      "type": "function",
      "constant": true
    },
    {
      "inputs": [],
      "name": "admin",
      "outputs": [
        {
          "internalType": "address",
          "name": "",
          "type": "address"
        }
      ],
      "stateMutability": "view",
      "type": "function",
      "constant": true
    },
    {
      "inputs": [
        {
          "internalType": "uint256",
          "name": "",
          "type": "uint256"
        }
      ],
      "name": "allTokens",
      "outputs": [
        {
          "internalType": "uint256",
          "name": "",
          "type": "uint256"
        }
      ],
      "stateMutability": "view",
      "type": "function",
      "constant": true
    },
    {
      "inputs": [
        {
          "internalType": "uint256",
          "name": "",
          "type": "uint256"
        }
      ],
      "name": "allTokensIndex",
      "outputs": [
        {
          "internalType": "uint256",
          "name": "",
          "type": "uint256"
        }
      ],
      "stateMutability": "view",
      "type": "function",
      "constant": true
    },
    {
      "inputs": [],
      "name": "counter",
      "outputs": [
        {
          "internalType": "uint256",
          "name": "",
          "type": "uint256"
        }
      ],
      "stateMutability": "view",
      "type": "function",
      "constant": true
    },
    {
      "inputs": [],
      "name": "name",
      "outputs": [
        {
          "internalType": "string",
          "name": "",
          "type": "string"
        }
      ],
      "stateMutability": "view",
      "type": "function",
      "constant": true
    },
    {
      "inputs": [
        {
          "internalType": "address",
          "name": "",
          "type": "address"
        },
        {
          "internalType": "uint256",
          "name": "",
          "type": "uint256"
        }
      ],
      "name": "ownedTokens",
      "outputs": [
        {
          "internalType": "uint256",
          "name": "",
          "type": "uint256"
        }
      ],
      "stateMutability": "view",
      "type": "function",
      "constant": true
    },
    {
      "inputs": [
        {
          "internalType": "uint256",
          "name": "",
          "type": "uint256"
        }
      ],
      "name": "ownedTokensIndex",
      "outputs": [
        {
          "internalType": "uint256",
          "name": "",
          "type": "uint256"
        }
      ],
      "stateMutability": "view",
      "type": "function",
      "constant": true
    },
    {
      "inputs": [
        {
          "internalType": "address",
          "name": "",
          "type": "address"
        },
        {
          "internalType": "uint256",
          "name": "",
          "type": "uint256"
        }
      ],
      "name": "ownedTypedTokens",
      "outputs": [
        {
          "internalType": "uint256",
          "name": "",
          "type": "uint256"
        }
      ],
      "stateMutability": "view",
      "type": "function",
      "constant": true
    },
    {
      "inputs": [
        {
          "internalType": "uint256",
          "name": "",
          "type": "uint256"
        }
      ],
      "name": "ownerOfToken",
      "outputs": [
        {
          "internalType": "address",
          "name": "",
          "type": "address"
        }
      ],
      "stateMutability": "view",
      "type": "function",
      "constant": true
    },
    {
      "inputs": [],
      "name": "receivedData",
      "outputs": [
        {
          "internalType": "bytes",
          "name": "",
          "type": "bytes"
        }
      ],
      "stateMutability": "view",
      "type": "function",
      "constant": true
    },
    {
      "inputs": [],
      "name": "receivedFrom",
      "outputs": [
        {
          "internalType": "address",
          "name": "",
          "type": "address"
        }
      ],
      "stateMutability": "view",
      "type": "function",
      "constant": true
    },
    {
      "inputs": [],
      "name": "receivedOperator",
      "outputs": [
        {
          "internalType": "address",
          "name": "",
          "type": "address"
        }
      ],
      "stateMutability": "view",
      "type": "function",
      "constant": true
    },
    {
      "inputs": [],
      "name": "receivedTokenId",
      "outputs": [
        {
          "internalType": "uint256",
          "name": "",
          "type": "uint256"
        }
      ],
      "stateMutability": "view",
      "type": "function",
      "constant": true
    },
    {
      "inputs": [],
      "name": "symbol",
      "outputs": [
        {
          "internalType": "string",
          "name": "",
          "type": "string"
        }
      ],
      "stateMutability": "view",
      "type": "function",
      "constant": true
    },
    {
      "inputs": [
        {
          "internalType": "uint256",
          "name": "",
          "type": "uint256"
        }
      ],
      "name": "templateOf",
      "outputs": [
        {
          "internalType": "uint256",
          "name": "",
          "type": "uint256"
        }
      ],
      "stateMutability": "view",
      "type": "function",
      "constant": true
    },
    {
      "inputs": [
        {
          "internalType": "uint256",
          "name": "",
          "type": "uint256"
        }
      ],
      "name": "templates",
      "outputs": [
        {
          "internalType": "string",
          "name": "name",
          "type": "string"
        },
        {
          "internalType": "string",
          "name": "cid",
          "type": "string"
        },
        {
          "internalType": "uint256",
          "name": "managedBy",
          "type": "uint256"
        },
        {
          "internalType": "bool",
          "name": "SelfMint",
          "type": "bool"
        },
        {
          "internalType": "bool",
          "name": "SelfBurn",
          "type": "bool"
        },
        {
          "internalType": "bool",
          "name": "AllowTransfer",
          "type": "bool"
        }
      ],
      "stateMutability": "view",
      "type": "function",
      "constant": true
    },
    {
      "inputs": [
        {
          "internalType": "uint256",
          "name": "",
          "type": "uint256"
        },
        {
          "internalType": "uint256",
          "name": "",
          "type": "uint256"
        }
      ],
      "name": "typedTokens",
      "outputs": [
        {
          "internalType": "uint256",
          "name": "",
          "type": "uint256"
        }
      ],
      "stateMutability": "view",
      "type": "function",
      "constant": true
    },
    {
      "inputs": [
        {
          "internalType": "uint256",
          "name": "",
          "type": "uint256"
        }
      ],
      "name": "typedTokensIndex",
      "outputs": [
        {
          "internalType": "uint256",
          "name": "",
          "type": "uint256"
        }
      ],
      "stateMutability": "view",
      "type": "function",
      "constant": true
    },
    {
      "inputs": [
        {
          "internalType": "address",
          "name": "_operator",
          "type": "address"
        },
        {
          "internalType": "address",
          "name": "_from",
          "type": "address"
        },
        {
          "internalType": "uint256",
          "name": "_tokenId",
          "type": "uint256"
        },
        {
          "internalType": "bytes",
          "name": "_data",
          "type": "bytes"
        }
      ],
      "name": "onERC721Received",
      "outputs": [
        {
          "internalType": "bytes4",
          "name": "",
          "type": "bytes4"
        }
      ],
      "stateMutability": "nonpayable",
      "type": "function"
    },
    {
      "inputs": [
        {
          "internalType": "address",
          "name": "_from",
          "type": "address"
        },
        {
          "internalType": "address",
          "name": "_to",
          "type": "address"
        },
        {
          "internalType": "uint256",
          "name": "_tokenId",
          "type": "uint256"
        }
      ],
      "name": "transferFrom",
      "outputs": [],
      "stateMutability": "payable",
      "type": "function",
      "payable": true
    },
    {
      "inputs": [
        {
          "internalType": "address",
          "name": "_from",
          "type": "address"
        },
        {
          "internalType": "address",
          "name": "_to",
          "type": "address"
        },
        {
          "internalType": "uint256",
          "name": "_tokenId",
          "type": "uint256"
        }
      ],
      "name": "safeTransferFrom",
      "outputs": [],
      "stateMutability": "payable",
      "type": "function",
      "payable": true
    },
    {
      "inputs": [
        {
          "internalType": "address",
          "name": "_from",
          "type": "address"
        },
        {
          "internalType": "address",
          "name": "_to",
          "type": "address"
        },
        {
          "internalType": "uint256",
          "name": "_tokenId",
          "type": "uint256"
        },
        {
          "internalType": "bytes",
          "name": "data",
          "type": "bytes"
        }
      ],
      "name": "safeTransferFrom",
      "outputs": [],
      "stateMutability": "payable",
      "type": "function",
      "payable": true
    },
    {
      "inputs": [],
      "name": "totalSupply",
      "outputs": [
        {
          "internalType": "uint256",
          "name": "",
          "type": "uint256"
        }
      ],
      "stateMutability": "view",
      "type": "function",
      "constant": true
    },
    {
      "inputs": [
        {
          "internalType": "uint256",
          "name": "_tokenId",
          "type": "uint256"
        }
      ],
      "name": "ownerOf",
      "outputs": [
        {
          "internalType": "address",
          "name": "",
          "type": "address"
        }
      ],
      "stateMutability": "view",
      "type": "function",
      "constant": true
    },
    {
      "inputs": [
        {
          "internalType": "uint256",
          "name": "_index",
          "type": "uint256"
        }
      ],
      "name": "tokenByIndex",
      "outputs": [
        {
          "internalType": "uint256",
          "name": "",
          "type": "uint256"
        }
      ],
      "stateMutability": "view",
      "type": "function",
      "constant": true
    },
    {
      "inputs": [
        {
          "internalType": "address",
          "name": "_owner",
          "type": "address"
        },
        {
          "internalType": "uint256",
          "name": "_index",
          "type": "uint256"
        }
      ],
      "name": "tokenOfOwnerByIndex",
      "outputs": [
        {
          "internalType": "uint256",
          "name": "_tokenId",
          "type": "uint256"
        }
      ],
      "stateMutability": "view",
      "type": "function",
      "constant": true
    },
    {
      "inputs": [
        {
          "internalType": "address",
          "name": "_owner",
          "type": "address"
        }
      ],
      "name": "balanceOf",
      "outputs": [
        {
          "internalType": "uint256",
          "name": "",
          "type": "uint256"
        }
      ],
      "stateMutability": "view",
      "type": "function",
      "constant": true
    },
    {
      "inputs": [
        {
          "internalType": "uint256",
          "name": "_type",
          "type": "uint256"
        }
      ],
      "name": "tokensOfType",
      "outputs": [
        {
          "internalType": "uint256",
          "name": "",
          "type": "uint256"
        }
      ],
      "stateMutability": "view",
      "type": "function",
      "constant": true
    },
    {
      "inputs": [
        {
          "internalType": "uint256",
          "name": "_type",
          "type": "uint256"
        },
        {
          "internalType": "uint256",
          "name": "_index",
          "type": "uint256"
        }
      ],
      "name": "tokenOfTypeByIndex",
      "outputs": [
        {
          "internalType": "uint256",
          "name": "_tokenId",
          "type": "uint256"
        }
      ],
      "stateMutability": "view",
      "type": "function",
      "constant": true
    },
    {
      "inputs": [
        {
          "internalType": "uint256",
          "name": "_tokenId",
          "type": "uint256"
        }
      ],
      "name": "tokenURI",
      "outputs": [
        {
          "internalType": "string",
          "name": "",
          "type": "string"
        }
      ],
      "stateMutability": "view",
      "type": "function",
      "constant": true
    },
    {
      "inputs": [
        {
          "internalType": "bytes4",
          "name": "interfaceID",
          "type": "bytes4"
        }
      ],
      "name": "supportsInterface",
      "outputs": [
        {
          "internalType": "bool",
          "name": "",
          "type": "bool"
        }
      ],
      "stateMutability": "pure",
      "type": "function",
      "constant": true
    },
    {
      "inputs": [
        {
          "internalType": "address",
          "name": "_to",
          "type": "address"
        },
        {
          "internalType": "uint256",
          "name": "_templateId",
          "type": "uint256"
        }
      ],
      "name": "createToken",
      "outputs": [],
      "stateMutability": "nonpayable",
      "type": "function"
    },
    {
      "inputs": [
        {
          "internalType": "address[]",
          "name": "_to",
          "type": "address[]"
        },
        {
          "internalType": "uint256",
          "name": "_templateId",
          "type": "uint256"
        }
      ],
      "name": "createTokens",
      "outputs": [],
      "stateMutability": "nonpayable",
      "type": "function"
    },
    {
      "inputs": [
        {
          "internalType": "uint256",
          "name": "_tokenId",
          "type": "uint256"
        }
      ],
      "name": "burnToken",
      "outputs": [],
      "stateMutability": "nonpayable",
      "type": "function"
    },
    {
      "inputs": [
        {
          "internalType": "string",
          "name": "_name",
          "type": "string"
        },
        {
          "internalType": "string",
          "name": "_cid",
          "type": "string"
        },
        {
          "internalType": "uint256",
          "name": "_managedBy",
          "type": "uint256"
        },
        {
          "internalType": "bool",
          "name": "_SelfMint",
          "type": "bool"
        },
        {
          "internalType": "bool",
          "name": "_SelfBurn",
          "type": "bool"
        },
        {
          "internalType": "bool",
          "name": "_AllowTransfer",
          "type": "bool"
        }
      ],
      "name": "CreateNewBadge",
      "outputs": [
        {
          "internalType": "uint256",
          "name": "",
          "type": "uint256"
        }
      ],
      "stateMutability": "nonpayable",
      "type": "function"
    },
    {
      "inputs": [
        {
          "internalType": "uint256",
          "name": "_templateid",
          "type": "uint256"
        },
        {
          "internalType": "string",
          "name": "_name",
          "type": "string"
        },
        {
          "internalType": "string",
          "name": "_cid",
          "type": "string"
        },
        {
          "internalType": "uint256",
          "name": "_managedBy",
          "type": "uint256"
        },
        {
          "internalType": "bool",
          "name": "_SelfMint",
          "type": "bool"
        },
        {
          "internalType": "bool",
          "name": "_SelfBurn",
          "type": "bool"
        },
        {
          "internalType": "bool",
          "name": "_AllowTransfer",
          "type": "bool"
        }
      ],
      "name": "UpdateBadge",
      "outputs": [],
      "stateMutability": "nonpayable",
      "type": "function"
    },
    {
      "inputs": [
        {
          "internalType": "uint256",
          "name": "_tokenId",
          "type": "uint256"
        }
      ],
      "name": "GetTemplateId",
      "outputs": [
        {
          "internalType": "uint256",
          "name": "",
          "type": "uint256"
        }
      ],
      "stateMutability": "view",
      "type": "function",
      "constant": true
    },
    {
      "inputs": [
        {
          "internalType": "uint256",
          "name": "_templateid",
          "type": "uint256"
        }
      ],
      "name": "GetTemplateInfo",
      "outputs": [
        {
          "components": [
            {
              "internalType": "string",
              "name": "name",
              "type": "string"
            },
            {
              "internalType": "string",
              "name": "cid",
              "type": "string"
            },
            {
              "internalType": "uint256",
              "name": "managedBy",
              "type": "uint256"
            },
            {
              "internalType": "bool",
              "name": "SelfMint",
              "type": "bool"
            },
            {
              "internalType": "bool",
              "name": "SelfBurn",
              "type": "bool"
            },
            {
              "internalType": "bool",
              "name": "AllowTransfer",
              "type": "bool"
            }
          ],
          "internalType": "struct KOIOSNFT.Template",
          "name": "",
          "type": "tuple"
        }
      ],
      "stateMutability": "view",
      "type": "function",
      "constant": true
    },
    {
      "inputs": [],
      "name": "nrTemplates",
      "outputs": [
        {
          "internalType": "uint256",
          "name": "",
          "type": "uint256"
        }
      ],
      "stateMutability": "view",
      "type": "function",
      "constant": true
    },
    {
      "inputs": [
        {
          "internalType": "string",
          "name": "_baseURI",
          "type": "string"
        }
      ],
      "name": "setBaseURI",
      "outputs": [],
      "stateMutability": "nonpayable",
      "type": "function"
    },
    {
      "inputs": [],
      "name": "contractURI",
      "outputs": [
        {
          "internalType": "string",
          "name": "",
          "type": "string"
        }
      ],
      "stateMutability": "view",
      "type": "function",
      "constant": true
    },
    {
      "inputs": [],
      "name": "checkIsAdmin",
      "outputs": [
        {
          "internalType": "bool",
          "name": "",
          "type": "bool"
        }
      ],
      "stateMutability": "view",
      "type": "function",
      "constant": true
    },
    {
      "inputs": [],
      "name": "checkIsBadgeCreator",
      "outputs": [
        {
          "internalType": "bool",
          "name": "",
          "type": "bool"
        }
      ],
      "stateMutability": "view",
      "type": "function",
      "constant": true
    },
    {
      "inputs": [
        {
          "internalType": "uint256",
          "name": "_templateId",
          "type": "uint256"
        }
      ],
      "name": "checkIsManager",
      "outputs": [
        {
          "internalType": "bool",
          "name": "",
          "type": "bool"
        }
      ],
      "stateMutability": "view",
      "type": "function",
      "constant": true
    },
    {
      "inputs": [],
      "name": "destroy",
      "outputs": [],
      "stateMutability": "nonpayable",
      "type": "function"
    }
  ],
  "bytecode": "0x6080604052600a6003553480156200001657600080fd5b506040516200464e3803806200464e83398181016040528101906200003c9190620001d3565b33600260006101000a81548173ffffffffffffffffffffffffffffffffffffffff021916908373ffffffffffffffffffffffffffffffffffffffff160217905550826000908051906020019062000095929190620000d1565b508160019080519060200190620000ae929190620000d1565b5080600e9080519060200190620000c7929190620000d1565b5050505062000305565b828054600181600116156101000203166002900490600052602060002090601f016020900481019282601f106200011457805160ff191683800117855562000145565b8280016001018555821562000145579182015b828111156200014457825182559160200191906001019062000127565b5b50905062000154919062000158565b5090565b5b808211156200017357600081600090555060010162000159565b5090565b600082601f8301126200018957600080fd5b8151620001a06200019a82620002a2565b62000274565b91508082526020830160208301858383011115620001bd57600080fd5b620001ca838284620002cf565b50505092915050565b600080600060608486031215620001e957600080fd5b600084015167ffffffffffffffff8111156200020457600080fd5b620002128682870162000177565b935050602084015167ffffffffffffffff8111156200023057600080fd5b6200023e8682870162000177565b925050604084015167ffffffffffffffff8111156200025c57600080fd5b6200026a8682870162000177565b9150509250925092565b6000604051905081810181811067ffffffffffffffff821117156200029857600080fd5b8060405250919050565b600067ffffffffffffffff821115620002ba57600080fd5b601f19601f8301169050602081019050919050565b60005b83811015620002ef578082015181840152602081019050620002d2565b83811115620002ff576000848401525b50505050565b61433980620003156000396000f3fe6080604052600436106102935760003560e01c806370a082311161015a578063b88d4fde116100c1578063c87b56dd1161007a578063c87b56dd14610ac8578063e149f03614610b05578063e5956a1914610b42578063e8a3d48514610b7f578063f851a44014610baa578063f91108c814610bd557610293565b8063b88d4fde1461099c578063bc525652146109b8578063bfacd7e8146109fa578063c194ba3114610a37578063c1afcfbb14610a60578063c57ac5d614610a8b57610293565b806387d40a701161011357806387d40a70146108645780638b75ccc91461088f5780638c476c24146108ba57806395cb2574146108f757806395d89b4114610934578063a0eb027a1461095f57610293565b806370a082311461075457806374e24367146107915780637b47ec1a146107ce57806383197ef0146107f757806383e6ed5a1461080e578063864039de1461083957610293565b806342842e0e116101fe57806361bc221a116101b757806361bc221a1461061e578063620de08b14610649578063634282af146106865780636352211e146106c35780636a10d4d6146107005780636fb0518e1461072957610293565b806342842e0e146104f757806342d8edea1461051357806344fd706a146105505780634da7a0431461057b5780634f6ccce7146105b857806355f804b3146105f557610293565b80631f9f5a39116102505780631f9f5a39146103ce57806323b872dd1461040b57806326f18fa3146104275780632edd2674146104525780632f745c591461048f57806338cc6071146104cc57610293565b806301ffc9a7146102985780630381e830146102d55780630693518d1461031257806306fdde031461033b578063150b7a021461036657806318160ddd146103a3575b600080fd5b3480156102a457600080fd5b506102bf60048036038101906102ba9190613726565b610c00565b6040516102cc9190613e9e565b60405180910390f35b3480156102e157600080fd5b506102fc60048036038101906102f79190613872565b610d00565b6040516103099190613e9e565b60405180910390f35b34801561031e57600080fd5b50610339600480360381019061033491906136d2565b610e2e565b005b34801561034757600080fd5b50610350611031565b60405161035d9190613ef6565b60405180910390f35b34801561037257600080fd5b5061038d6004803603810190610388919061361b565b6110cf565b60405161039a9190613eb9565b60405180910390f35b3480156103af57600080fd5b506103b8611183565b6040516103c59190614049565b60405180910390f35b3480156103da57600080fd5b506103f560048036038101906103f09190613872565b611190565b6040516104029190614049565b60405180910390f35b610425600480360381019061042091906135cc565b6111ad565b005b34801561043357600080fd5b5061043c6112ab565b6040516104499190614049565b60405180910390f35b34801561045e57600080fd5b5061047960048036038101906104749190613969565b6112b8565b6040516104869190614049565b60405180910390f35b34801561049b57600080fd5b506104b660048036038101906104b19190613696565b6112e6565b6040516104c39190614049565b60405180910390f35b3480156104d857600080fd5b506104e1611393565b6040516104ee9190614049565b60405180910390f35b610511600480360381019061050c91906135cc565b611399565b005b34801561051f57600080fd5b5061053a60048036038101906105359190613872565b611587565b6040516105479190614049565b60405180910390f35b34801561055c57600080fd5b5061056561159f565b6040516105729190613ded565b60405180910390f35b34801561058757600080fd5b506105a2600480360381019061059d9190613872565b6115c5565b6040516105af9190614049565b60405180910390f35b3480156105c457600080fd5b506105df60048036038101906105da9190613872565b6115dd565b6040516105ec9190614049565b60405180910390f35b34801561060157600080fd5b5061061c60048036038101906106179190613778565b61160f565b005b34801561062a57600080fd5b50610633611714565b6040516106409190614049565b60405180910390f35b34801561065557600080fd5b50610670600480360381019061066b9190613696565b61171a565b60405161067d9190614049565b60405180910390f35b34801561069257600080fd5b506106ad60048036038101906106a89190613872565b61173f565b6040516106ba9190614049565b60405180910390f35b3480156106cf57600080fd5b506106ea60048036038101906106e59190613872565b611760565b6040516106f79190613ded565b60405180910390f35b34801561070c57600080fd5b5061072760048036038101906107229190613696565b6117f6565b005b34801561073557600080fd5b5061073e611abe565b60405161074b9190614049565b60405180910390f35b34801561076057600080fd5b5061077b600480360381019061077691906135a3565b611ac3565b6040516107889190614049565b60405180910390f35b34801561079d57600080fd5b506107b860048036038101906107b39190613872565b611b32565b6040516107c59190614049565b60405180910390f35b3480156107da57600080fd5b506107f560048036038101906107f09190613872565b611b4a565b005b34801561080357600080fd5b5061080c611d6f565b005b34801561081a57600080fd5b50610823611e18565b6040516108309190614049565b60405180910390f35b34801561084557600080fd5b5061084e611e1d565b60405161085b9190613e9e565b60405180910390f35b34801561087057600080fd5b50610879611f2c565b6040516108869190613ed4565b60405180910390f35b34801561089b57600080fd5b506108a4611fca565b6040516108b19190613e9e565b60405180910390f35b3480156108c657600080fd5b506108e160048036038101906108dc91906137b9565b61207d565b6040516108ee9190614049565b60405180910390f35b34801561090357600080fd5b5061091e60048036038101906109199190613872565b612354565b60405161092b9190614027565b60405180910390f35b34801561094057600080fd5b50610949612528565b6040516109569190613ef6565b60405180910390f35b34801561096b57600080fd5b5061098660048036038101906109819190613969565b6125c6565b6040516109939190614049565b60405180910390f35b6109b660048036038101906109b1919061361b565b61261b565b005b3480156109c457600080fd5b506109df60048036038101906109da9190613872565b61280c565b6040516109f196959493929190613f18565b60405180910390f35b348015610a0657600080fd5b50610a216004803603810190610a1c9190613872565b6129ac565b604051610a2e9190614049565b60405180910390f35b348015610a4357600080fd5b50610a5e6004803603810190610a59919061389b565b6129c4565b005b348015610a6c57600080fd5b50610a75612bad565b604051610a829190614049565b60405180910390f35b348015610a9757600080fd5b50610ab26004803603810190610aad9190613872565b612bb2565b604051610abf9190613ded565b60405180910390f35b348015610ad457600080fd5b50610aef6004803603810190610aea9190613872565b612be5565b604051610afc9190613ef6565b60405180910390f35b348015610b1157600080fd5b50610b2c6004803603810190610b279190613696565b612c47565b604051610b399190614049565b60405180910390f35b348015610b4e57600080fd5b50610b696004803603810190610b649190613872565b612c75565b604051610b769190614049565b60405180910390f35b348015610b8b57600080fd5b50610b94612c95565b604051610ba19190613ef6565b60405180910390f35b348015610bb657600080fd5b50610bbf612cdd565b604051610bcc9190613ded565b60405180910390f35b348015610be157600080fd5b50610bea612d03565b604051610bf79190613ded565b60405180910390f35b60006380ac58cd60e01b7bffffffffffffffffffffffffffffffffffffffffffffffffffffffff1916827bffffffffffffffffffffffffffffffffffffffffffffffffffffffff19161480610c995750635b5e139f60e01b7bffffffffffffffffffffffffffffffffffffffffffffffffffffffff1916827bffffffffffffffffffffffffffffffffffffffffffffffffffffffff1916145b80610ce8575063780e9d6360e01b7bffffffffffffffffffffffffffffffffffffffffffffffffffffffff1916827bffffffffffffffffffffffffffffffffffffffffffffffffffffffff1916145b15610cf65760019050610cfb565b600090505b919050565b6000600260009054906101000a900473ffffffffffffffffffffffffffffffffffffffff1673ffffffffffffffffffffffffffffffffffffffff163373ffffffffffffffffffffffffffffffffffffffff161480610dae57506000600c60003373ffffffffffffffffffffffffffffffffffffffff1673ffffffffffffffffffffffffffffffffffffffff168152602001908152602001600020600080815260200190815260200160002054115b80610e2757506000600c60003373ffffffffffffffffffffffffffffffffffffffff1673ffffffffffffffffffffffffffffffffffffffff1681526020019081526020016000206000600d8581548110610e0457fe5b906000526020600020906004020160020154815260200190815260200160002054115b9050919050565b80600260009054906101000a900473ffffffffffffffffffffffffffffffffffffffff1673ffffffffffffffffffffffffffffffffffffffff163373ffffffffffffffffffffffffffffffffffffffff161480610edb57506000600c60003373ffffffffffffffffffffffffffffffffffffffff1673ffffffffffffffffffffffffffffffffffffffff168152602001908152602001600020600080815260200190815260200160002054115b80610f3757506000600c60003373ffffffffffffffffffffffffffffffffffffffff1673ffffffffffffffffffffffffffffffffffffffff16815260200190815260200160002060006002815260200190815260200160002054115b80610fb057506000600c60003373ffffffffffffffffffffffffffffffffffffffff1673ffffffffffffffffffffffffffffffffffffffff1681526020019081526020016000206000600d8481548110610f8d57fe5b906000526020600020906004020160020154815260200190815260200160002054115b610fef576040517f08c379a0000000000000000000000000000000000000000000000000000000008152600401610fe690613fc7565b60405180910390fd5b60008351905060005b8181101561102a5761101d85828151811061100f57fe5b6020026020010151856117f6565b8080600101915050610ff8565b5050505050565b60008054600181600116156101000203166002900480601f0160208091040260200160405190810160405280929190818152602001828054600181600116156101000203166002900480156110c75780601f1061109c576101008083540402835291602001916110c7565b820191906000526020600020905b8154815290600101906020018083116110aa57829003601f168201915b505050505081565b600084600f60006101000a81548173ffffffffffffffffffffffffffffffffffffffff021916908373ffffffffffffffffffffffffffffffffffffffff16021790555083601060006101000a81548173ffffffffffffffffffffffffffffffffffffffff021916908373ffffffffffffffffffffffffffffffffffffffff1602179055508260118190555081601290805190602001906111709291906132b6565b5063150b7a0260e01b9050949350505050565b6000600480549050905090565b600060096000838152602001908152602001600020549050919050565b8060006008600083815260200190815260200160002060009054906101000a900473ffffffffffffffffffffffffffffffffffffffff1673ffffffffffffffffffffffffffffffffffffffff16141561120557600080fd5b8383838273ffffffffffffffffffffffffffffffffffffffff166008600083815260200190815260200160002060009054906101000a900473ffffffffffffffffffffffffffffffffffffffff1673ffffffffffffffffffffffffffffffffffffffff161461127357600080fd5b60008273ffffffffffffffffffffffffffffffffffffffff16141561129757600080fd5b6112a2878787612d29565b50505050505050565b6000600d80549050905090565b600a60205281600052604060002081815481106112d157fe5b90600052602060002001600091509150505481565b6000600660008473ffffffffffffffffffffffffffffffffffffffff1673ffffffffffffffffffffffffffffffffffffffff16815260200190815260200160002080549050821061133657600080fd5b600660008473ffffffffffffffffffffffffffffffffffffffff1673ffffffffffffffffffffffffffffffffffffffff168152602001908152602001600020828154811061138057fe5b9060005260206000200154905092915050565b60115481565b8060006008600083815260200190815260200160002060009054906101000a900473ffffffffffffffffffffffffffffffffffffffff1673ffffffffffffffffffffffffffffffffffffffff1614156113f157600080fd5b8383838273ffffffffffffffffffffffffffffffffffffffff166008600083815260200190815260200160002060009054906101000a900473ffffffffffffffffffffffffffffffffffffffff1673ffffffffffffffffffffffffffffffffffffffff161461145f57600080fd5b60008273ffffffffffffffffffffffffffffffffffffffff16141561148357600080fd5b61148e878787612d29565b6000863b9050600081111561157d5763150b7a0260e01b7bffffffffffffffffffffffffffffffffffffffffffffffffffffffff19168773ffffffffffffffffffffffffffffffffffffffff1663150b7a02338b8a6040518463ffffffff1660e01b815260040161150193929190613e54565b602060405180830381600087803b15801561151b57600080fd5b505af115801561152f573d6000803e3d6000fd5b505050506040513d601f19601f82011682018060405250810190611553919061374f565b7bffffffffffffffffffffffffffffffffffffffffffffffffffffffff19161461157c57600080fd5b5b5050505050505050565b60056020528060005260406000206000915090505481565b600f60009054906101000a900473ffffffffffffffffffffffffffffffffffffffff1681565b600b6020528060005260406000206000915090505481565b600060048054905082106115f057600080fd5b600482815481106115fd57fe5b90600052602060002001549050919050565b600260009054906101000a900473ffffffffffffffffffffffffffffffffffffffff1673ffffffffffffffffffffffffffffffffffffffff163373ffffffffffffffffffffffffffffffffffffffff1614806116bb57506000600c60003373ffffffffffffffffffffffffffffffffffffffff1673ffffffffffffffffffffffffffffffffffffffff168152602001908152602001600020600080815260200190815260200160002054115b6116fa576040517f08c379a00000000000000000000000000000000000000000000000000000000081526004016116f190614007565b60405180910390fd5b80600e9080519060200190611710929190613336565b5050565b60035481565b600c602052816000526040600020602052806000526040600020600091509150505481565b6004818154811061174c57fe5b906000526020600020016000915090505481565b60008160006008600083815260200190815260200160002060009054906101000a900473ffffffffffffffffffffffffffffffffffffffff1673ffffffffffffffffffffffffffffffffffffffff1614156117ba57600080fd5b6008600084815260200190815260200160002060009054906101000a900473ffffffffffffffffffffffffffffffffffffffff16915050919050565b80600260009054906101000a900473ffffffffffffffffffffffffffffffffffffffff1673ffffffffffffffffffffffffffffffffffffffff163373ffffffffffffffffffffffffffffffffffffffff1614806118a357506000600c60003373ffffffffffffffffffffffffffffffffffffffff1673ffffffffffffffffffffffffffffffffffffffff168152602001908152602001600020600080815260200190815260200160002054115b806118ff57506000600c60003373ffffffffffffffffffffffffffffffffffffffff1673ffffffffffffffffffffffffffffffffffffffff16815260200190815260200160002060006002815260200190815260200160002054115b8061197857506000600c60003373ffffffffffffffffffffffffffffffffffffffff1673ffffffffffffffffffffffffffffffffffffffff1681526020019081526020016000206000600d848154811061195557fe5b906000526020600020906004020160020154815260200190815260200160002054115b6119b7576040517f08c379a00000000000000000000000000000000000000000000000000000000081526004016119ae90613fc7565b60405180910390fd5b8160096000600354815260200190815260200160002081905550600a600083815260200190815260200160002060035490806001815401808255809150506001900390600052602060002001600090919091909150556001600a60008481526020019081526020016000208054905003600b600084815260200190815260200160002081905550611a4a83600354612d9d565b6003548373ffffffffffffffffffffffffffffffffffffffff16600073ffffffffffffffffffffffffffffffffffffffff167fddf252ad1be2c89b69c2b068fc378daa952ba7f163c4a11628f55a4df523b3ef60405160405180910390a46001600360008282540192505081905550505050565b600081565b6000808273ffffffffffffffffffffffffffffffffffffffff161415611ae857600080fd5b600660008373ffffffffffffffffffffffffffffffffffffffff1673ffffffffffffffffffffffffffffffffffffffff168152602001908152602001600020805490509050919050565b60076020528060005260406000206000915090505481565b3373ffffffffffffffffffffffffffffffffffffffff166008600083815260200190815260200160002060009054906101000a900473ffffffffffffffffffffffffffffffffffffffff1673ffffffffffffffffffffffffffffffffffffffff1614611beb576040517f08c379a0000000000000000000000000000000000000000000000000000000008152600401611be290613fa7565b60405180910390fd5b6000600960008381526020019081526020016000205490506000600b60008481526020019081526020016000205490506000600a6000848152602001908152602001600020805490509050600a60008481526020019081526020016000206001820381548110611c5757fe5b9060005260206000200154600a60008581526020019081526020016000208381548110611c8057fe5b906000526020600020018190555081600b6000600a60008781526020019081526020016000206001850381548110611cb457fe5b9060005260206000200154815260200190815260200160002081905550600a6000848152602001908152602001600020805480611ced57fe5b60019003818190600052602060002001600090559055611d0d3385612f78565b83600073ffffffffffffffffffffffffffffffffffffffff163373ffffffffffffffffffffffffffffffffffffffff167fddf252ad1be2c89b69c2b068fc378daa952ba7f163c4a11628f55a4df523b3ef60405160405180910390a450505050565b600260009054906101000a900473ffffffffffffffffffffffffffffffffffffffff1673ffffffffffffffffffffffffffffffffffffffff163373ffffffffffffffffffffffffffffffffffffffff1614611dff576040517f08c379a0000000000000000000000000000000000000000000000000000000008152600401611df690613fe7565b60405180910390fd5b3373ffffffffffffffffffffffffffffffffffffffff16ff5b600281565b6000600260009054906101000a900473ffffffffffffffffffffffffffffffffffffffff1673ffffffffffffffffffffffffffffffffffffffff163373ffffffffffffffffffffffffffffffffffffffff161480611ecb57506000600c60003373ffffffffffffffffffffffffffffffffffffffff1673ffffffffffffffffffffffffffffffffffffffff168152602001908152602001600020600080815260200190815260200160002054115b80611f2757506000600c60003373ffffffffffffffffffffffffffffffffffffffff1673ffffffffffffffffffffffffffffffffffffffff16815260200190815260200160002060006002815260200190815260200160002054115b905090565b60128054600181600116156101000203166002900480601f016020809104026020016040519081016040528092919081815260200182805460018160011615610100020316600290048015611fc25780601f10611f9757610100808354040283529160200191611fc2565b820191906000526020600020905b815481529060010190602001808311611fa557829003601f168201915b505050505081565b6000600260009054906101000a900473ffffffffffffffffffffffffffffffffffffffff1673ffffffffffffffffffffffffffffffffffffffff163373ffffffffffffffffffffffffffffffffffffffff16148061207857506000600c60003373ffffffffffffffffffffffffffffffffffffffff1673ffffffffffffffffffffffffffffffffffffffff168152602001908152602001600020600080815260200190815260200160002054115b905090565b6000600260009054906101000a900473ffffffffffffffffffffffffffffffffffffffff1673ffffffffffffffffffffffffffffffffffffffff163373ffffffffffffffffffffffffffffffffffffffff16148061212b57506000600c60003373ffffffffffffffffffffffffffffffffffffffff1673ffffffffffffffffffffffffffffffffffffffff168152602001908152602001600020600080815260200190815260200160002054115b8061218757506000600c60003373ffffffffffffffffffffffffffffffffffffffff1673ffffffffffffffffffffffffffffffffffffffff16815260200190815260200160002060006002815260200190815260200160002054115b6121c6576040517f08c379a00000000000000000000000000000000000000000000000000000000081526004016121bd90613f87565b60405180910390fd5b600d6040518060c001604052808981526020018881526020018781526020018615158152602001851515815260200184151581525090806001815401808255809150506001900390600052602060002090600402016000909190919091506000820151816000019080519060200190612240929190613336565b50602082015181600101908051906020019061225d929190613336565b506040820151816002015560608201518160030160006101000a81548160ff02191690831515021790555060808201518160030160016101000a81548160ff02191690831515021790555060a08201518160030160026101000a81548160ff02191690831515021790555050506122fe600260009054906101000a900473ffffffffffffffffffffffffffffffffffffffff166001600d80549050036117f6565b7f46beb6b91724233777b2403033beabc2d79994bcc50d854fa1bbb9e6b56b59026001600d805490500388604051612337929190614064565b60405180910390a16001600d805490500390509695505050505050565b61235c6133b6565b600d828154811061236957fe5b90600052602060002090600402016040518060c0016040529081600082018054600181600116156101000203166002900480601f01602080910402602001604051908101604052809291908181526020018280546001816001161561010002031660029004801561241b5780601f106123f05761010080835404028352916020019161241b565b820191906000526020600020905b8154815290600101906020018083116123fe57829003601f168201915b50505050508152602001600182018054600181600116156101000203166002900480601f0160208091040260200160405190810160405280929190818152602001828054600181600116156101000203166002900480156124bd5780601f10612492576101008083540402835291602001916124bd565b820191906000526020600020905b8154815290600101906020018083116124a057829003601f168201915b50505050508152602001600282015481526020016003820160009054906101000a900460ff161515151581526020016003820160019054906101000a900460ff161515151581526020016003820160029054906101000a900460ff1615151515815250509050919050565b60018054600181600116156101000203166002900480601f0160208091040260200160405190810160405280929190818152602001828054600181600116156101000203166002900480156125be5780601f10612593576101008083540402835291602001916125be565b820191906000526020600020905b8154815290600101906020018083116125a157829003601f168201915b505050505081565b6000600a60008481526020019081526020016000208054905082106125ea57600080fd5b600a6000848152602001908152602001600020828154811061260857fe5b9060005260206000200154905092915050565b8160006008600083815260200190815260200160002060009054906101000a900473ffffffffffffffffffffffffffffffffffffffff1673ffffffffffffffffffffffffffffffffffffffff16141561267357600080fd5b8484848273ffffffffffffffffffffffffffffffffffffffff166008600083815260200190815260200160002060009054906101000a900473ffffffffffffffffffffffffffffffffffffffff1673ffffffffffffffffffffffffffffffffffffffff16146126e157600080fd5b60008273ffffffffffffffffffffffffffffffffffffffff16141561270557600080fd5b612710888888612d29565b6000873b905060008111156128015763150b7a0260e01b7bffffffffffffffffffffffffffffffffffffffffffffffffffffffff19168873ffffffffffffffffffffffffffffffffffffffff1663150b7a02338c8b8b6040518563ffffffff1660e01b81526004016127859493929190613e08565b602060405180830381600087803b15801561279f57600080fd5b505af11580156127b3573d6000803e3d6000fd5b505050506040513d601f19601f820116820180604052508101906127d7919061374f565b7bffffffffffffffffffffffffffffffffffffffffffffffffffffffff19161461280057600080fd5b5b505050505050505050565b600d818154811061281957fe5b9060005260206000209060040201600091509050806000018054600181600116156101000203166002900480601f0160208091040260200160405190810160405280929190818152602001828054600181600116156101000203166002900480156128c55780601f1061289a576101008083540402835291602001916128c5565b820191906000526020600020905b8154815290600101906020018083116128a857829003601f168201915b505050505090806001018054600181600116156101000203166002900480601f0160208091040260200160405190810160405280929190818152602001828054600181600116156101000203166002900480156129635780601f1061293857610100808354040283529160200191612963565b820191906000526020600020905b81548152906001019060200180831161294657829003601f168201915b5050505050908060020154908060030160009054906101000a900460ff16908060030160019054906101000a900460ff16908060030160029054906101000a900460ff16905086565b60096020528060005260406000206000915090505481565b600260009054906101000a900473ffffffffffffffffffffffffffffffffffffffff1673ffffffffffffffffffffffffffffffffffffffff163373ffffffffffffffffffffffffffffffffffffffff161480612a7057506000600c60003373ffffffffffffffffffffffffffffffffffffffff1673ffffffffffffffffffffffffffffffffffffffff168152602001908152602001600020600080815260200190815260200160002054115b612aaf576040517f08c379a0000000000000000000000000000000000000000000000000000000008152600401612aa690614007565b60405180910390fd5b6040518060c0016040528087815260200186815260200185815260200184151581526020018315158152602001821515815250600d8881548110612aef57fe5b90600052602060002090600402016000820151816000019080519060200190612b19929190613336565b506020820151816001019080519060200190612b36929190613336565b506040820151816002015560608201518160030160006101000a81548160ff02191690831515021790555060808201518160030160016101000a81548160ff02191690831515021790555060a08201518160030160026101000a81548160ff02191690831515021790555090505050505050505050565b600181565b60086020528060005260406000206000915054906101000a900473ffffffffffffffffffffffffffffffffffffffff1681565b6060600060096000848152602001908152602001600020549050600e600d8281548110612c0e57fe5b9060005260206000209060040201600101604051602001612c30929190613dc9565b604051602081830303815290604052915050919050565b60066020528160005260406000208181548110612c6057fe5b90600052602060002001600091509150505481565b6000600a6000838152602001908152602001600020805490509050919050565b6060600e600d600181548110612ca757fe5b9060005260206000209060040201600101604051602001612cc9929190613dc9565b604051602081830303815290604052905090565b600260009054906101000a900473ffffffffffffffffffffffffffffffffffffffff1681565b601060009054906101000a900473ffffffffffffffffffffffffffffffffffffffff1681565b612d338382612f78565b612d3d8282612d9d565b808273ffffffffffffffffffffffffffffffffffffffff168473ffffffffffffffffffffffffffffffffffffffff167fddf252ad1be2c89b69c2b068fc378daa952ba7f163c4a11628f55a4df523b3ef60405160405180910390a4505050565b60048190806001815401808255809150506001900390600052602060002001600090919091909150556001600480549050036005600083815260200190815260200160002081905550816008600083815260200190815260200160002060006101000a81548173ffffffffffffffffffffffffffffffffffffffff021916908373ffffffffffffffffffffffffffffffffffffffff160217905550600660008373ffffffffffffffffffffffffffffffffffffffff1673ffffffffffffffffffffffffffffffffffffffff1681526020019081526020016000208190806001815401808255809150506001900390600052602060002001600090919091909150556001600660008473ffffffffffffffffffffffffffffffffffffffff1673ffffffffffffffffffffffffffffffffffffffff16815260200190815260200160002080549050036007600083815260200190815260200160002081905550600060096000838152602001908152602001600020549050600c60008473ffffffffffffffffffffffffffffffffffffffff1673ffffffffffffffffffffffffffffffffffffffff168152602001908152602001600020600082815260200190815260200160002060008154809291906001019190505550505050565b6000600560008381526020019081526020016000205490506000600480549050905060046001820381548110612faa57fe5b906000526020600020015460048381548110612fc257fe5b9060005260206000200181905550816005600060046001850381548110612fe557fe5b9060005260206000200154815260200190815260200160002081905550600480548061300d57fe5b600190038181906000526020600020016000905590556000600760008581526020019081526020016000205490506000600660008773ffffffffffffffffffffffffffffffffffffffff1673ffffffffffffffffffffffffffffffffffffffff168152602001908152602001600020805490509050600660008773ffffffffffffffffffffffffffffffffffffffff1673ffffffffffffffffffffffffffffffffffffffff16815260200190815260200160002060018203815481106130cf57fe5b9060005260206000200154600660008873ffffffffffffffffffffffffffffffffffffffff1673ffffffffffffffffffffffffffffffffffffffff168152602001908152602001600020838154811061312457fe5b90600052602060002001819055508160076000600660008a73ffffffffffffffffffffffffffffffffffffffff1673ffffffffffffffffffffffffffffffffffffffff168152602001908152602001600020600185038154811061318457fe5b9060005260206000200154815260200190815260200160002081905550600660008773ffffffffffffffffffffffffffffffffffffffff1673ffffffffffffffffffffffffffffffffffffffff1681526020019081526020016000208054806131e957fe5b60019003818190600052602060002001600090559055600060096000878152602001908152602001600020549050600c60008873ffffffffffffffffffffffffffffffffffffffff1673ffffffffffffffffffffffffffffffffffffffff1681526020019081526020016000206000828152602001908152602001600020600081548092919060010191905055506008600087815260200190815260200160002060006101000a81549073ffffffffffffffffffffffffffffffffffffffff021916905550505050505050565b828054600181600116156101000203166002900490600052602060002090601f016020900481019282601f106132f757805160ff1916838001178555613325565b82800160010185558215613325579182015b82811115613324578251825591602001919060010190613309565b5b50905061333291906133f2565b5090565b828054600181600116156101000203166002900490600052602060002090601f016020900481019282601f1061337757805160ff19168380011785556133a5565b828001600101855582156133a5579182015b828111156133a4578251825591602001919060010190613389565b5b5090506133b291906133f2565b5090565b6040518060c001604052806060815260200160608152602001600081526020016000151581526020016000151581526020016000151581525090565b5b8082111561340b5760008160009055506001016133f3565b5090565b60008135905061341e816142a7565b92915050565b600082601f83011261343557600080fd5b8135613448613443826140c1565b614094565b9150818183526020840193506020810190508385602084028201111561346d57600080fd5b60005b8381101561349d5781613483888261340f565b845260208401935060208301925050600181019050613470565b5050505092915050565b6000813590506134b6816142be565b92915050565b6000813590506134cb816142d5565b92915050565b6000815190506134e0816142d5565b92915050565b600082601f8301126134f757600080fd5b813561350a613505826140e9565b614094565b9150808252602083016020830185838301111561352657600080fd5b613531838284614254565b50505092915050565b600082601f83011261354b57600080fd5b813561355e61355982614115565b614094565b9150808252602083016020830185838301111561357a57600080fd5b613585838284614254565b50505092915050565b60008135905061359d816142ec565b92915050565b6000602082840312156135b557600080fd5b60006135c38482850161340f565b91505092915050565b6000806000606084860312156135e157600080fd5b60006135ef8682870161340f565b93505060206136008682870161340f565b92505060406136118682870161358e565b9150509250925092565b6000806000806080858703121561363157600080fd5b600061363f8782880161340f565b94505060206136508782880161340f565b93505060406136618782880161358e565b925050606085013567ffffffffffffffff81111561367e57600080fd5b61368a878288016134e6565b91505092959194509250565b600080604083850312156136a957600080fd5b60006136b78582860161340f565b92505060206136c88582860161358e565b9150509250929050565b600080604083850312156136e557600080fd5b600083013567ffffffffffffffff8111156136ff57600080fd5b61370b85828601613424565b925050602061371c8582860161358e565b9150509250929050565b60006020828403121561373857600080fd5b6000613746848285016134bc565b91505092915050565b60006020828403121561376157600080fd5b600061376f848285016134d1565b91505092915050565b60006020828403121561378a57600080fd5b600082013567ffffffffffffffff8111156137a457600080fd5b6137b08482850161353a565b91505092915050565b60008060008060008060c087890312156137d257600080fd5b600087013567ffffffffffffffff8111156137ec57600080fd5b6137f889828a0161353a565b965050602087013567ffffffffffffffff81111561381557600080fd5b61382189828a0161353a565b955050604061383289828a0161358e565b945050606061384389828a016134a7565b935050608061385489828a016134a7565b92505060a061386589828a016134a7565b9150509295509295509295565b60006020828403121561388457600080fd5b60006138928482850161358e565b91505092915050565b600080600080600080600060e0888a0312156138b657600080fd5b60006138c48a828b0161358e565b975050602088013567ffffffffffffffff8111156138e157600080fd5b6138ed8a828b0161353a565b965050604088013567ffffffffffffffff81111561390a57600080fd5b6139168a828b0161353a565b95505060606139278a828b0161358e565b94505060806139388a828b016134a7565b93505060a06139498a828b016134a7565b92505060c061395a8a828b016134a7565b91505092959891949750929550565b6000806040838503121561397c57600080fd5b600061398a8582860161358e565b925050602061399b8582860161358e565b9150509250929050565b6139ae8161421e565b82525050565b6139bd816141aa565b82525050565b6139cc816141bc565b82525050565b6139db816141bc565b82525050565b6139ea816141c8565b82525050565b60006139fb82614156565b613a05818561416c565b9350613a15818560208601614263565b613a1e81614296565b840191505092915050565b6000613a3482614161565b613a3e818561417d565b9350613a4e818560208601614263565b613a5781614296565b840191505092915050565b6000613a6d82614161565b613a77818561418e565b9350613a87818560208601614263565b613a9081614296565b840191505092915050565b600081546001811660008114613ab85760018114613add57613b21565b607f6002830416613ac9818761419f565b955060ff1983168652808601935050613b21565b60028204613aeb818761419f565b9550613af685614141565b60005b82811015613b1857815481890152600182019150602081019050613af9565b82880195505050505b505092915050565b6000613b3660268361418e565b91507f4d75737420686176652061646d696e206f722062616467652063726561746f7260008301527f20726f6c652000000000000000000000000000000000000000000000000000006020830152604082019050919050565b6000613b9c60238361418e565b91507f546f6b656e2073686f756c6420626520696e20636f6e74726f6c206f66206f7760008301527f6e657200000000000000000000000000000000000000000000000000000000006020830152604082019050919050565b6000613c02603b8361418e565b91507f4d75737420686176652061646d696e2c20626164676563726561746f72206f7260008301527f206d616e6167657220726f6c6520666f722074686520626164676500000000006020830152604082019050919050565b6000613c6860008361416c565b9150600082019050919050565b6000613c8260188361418e565b91507f4d7573742062652061646d696e20746f2064657374726f7900000000000000006000830152602082019050919050565b6000613cc260248361418e565b91507f4d75737420686176652061646d696e20726f6c6520746f20637265617465207460008301527f6f6b656e000000000000000000000000000000000000000000000000000000006020830152604082019050919050565b600060c0830160008301518482036000860152613d388282613a29565b91505060208301518482036020860152613d528282613a29565b9150506040830151613d676040860182613dab565b506060830151613d7a60608601826139c3565b506080830151613d8d60808601826139c3565b5060a0830151613da060a08601826139c3565b508091505092915050565b613db481614214565b82525050565b613dc381614214565b82525050565b6000613dd58285613a9b565b9150613de18284613a9b565b91508190509392505050565b6000602082019050613e0260008301846139b4565b92915050565b6000608082019050613e1d60008301876139a5565b613e2a60208301866139b4565b613e376040830185613dba565b8181036060830152613e4981846139f0565b905095945050505050565b6000608082019050613e6960008301866139a5565b613e7660208301856139b4565b613e836040830184613dba565b8181036060830152613e9481613c5b565b9050949350505050565b6000602082019050613eb360008301846139d2565b92915050565b6000602082019050613ece60008301846139e1565b92915050565b60006020820190508181036000830152613eee81846139f0565b905092915050565b60006020820190508181036000830152613f108184613a62565b905092915050565b600060c0820190508181036000830152613f328189613a62565b90508181036020830152613f468188613a62565b9050613f556040830187613dba565b613f6260608301866139d2565b613f6f60808301856139d2565b613f7c60a08301846139d2565b979650505050505050565b60006020820190508181036000830152613fa081613b29565b9050919050565b60006020820190508181036000830152613fc081613b8f565b9050919050565b60006020820190508181036000830152613fe081613bf5565b9050919050565b6000602082019050818103600083015261400081613c75565b9050919050565b6000602082019050818103600083015261402081613cb5565b9050919050565b600060208201905081810360008301526140418184613d1b565b905092915050565b600060208201905061405e6000830184613dba565b92915050565b60006040820190506140796000830185613dba565b818103602083015261408b8184613a62565b90509392505050565b6000604051905081810181811067ffffffffffffffff821117156140b757600080fd5b8060405250919050565b600067ffffffffffffffff8211156140d857600080fd5b602082029050602081019050919050565b600067ffffffffffffffff82111561410057600080fd5b601f19601f8301169050602081019050919050565b600067ffffffffffffffff82111561412c57600080fd5b601f19601f8301169050602081019050919050565b60008190508160005260206000209050919050565b600081519050919050565b600081519050919050565b600082825260208201905092915050565b600082825260208201905092915050565b600082825260208201905092915050565b600081905092915050565b60006141b5826141f4565b9050919050565b60008115159050919050565b60007fffffffff0000000000000000000000000000000000000000000000000000000082169050919050565b600073ffffffffffffffffffffffffffffffffffffffff82169050919050565b6000819050919050565b600061422982614230565b9050919050565b600061423b82614242565b9050919050565b600061424d826141f4565b9050919050565b82818337600083830152505050565b60005b83811015614281578082015181840152602081019050614266565b83811115614290576000848401525b50505050565b6000601f19601f8301169050919050565b6142b0816141aa565b81146142bb57600080fd5b50565b6142c7816141bc565b81146142d257600080fd5b50565b6142de816141c8565b81146142e957600080fd5b50565b6142f581614214565b811461430057600080fd5b5056fea2646970667358221220cc04b961873d9bb5e7be48cc055997ef91970866b71a3fedc459bbc687e6203364736f6c63430007000033",
  "immutableReferences": {},
  "source": "// SPDX-License-Identifier: MIT\r\n// based on https://github.com/ConsenSys/artifaqt/blob/master/contract/contracts/KOIOSNFT\r\n// Use for educational purposes only // without approval functions\r\n// Extended with templates\r\npragma experimental ABIEncoderV2;\r\npragma solidity ^0.7.0;\r\n\r\ncontract KOIOSNFT {  \r\n    event Transfer(address indexed _from, address indexed _to, uint256 indexed _tokenId);    \r\n    event NewBadge(uint256 _templateid,string _name);\r\n\r\n    string public  name;\r\n    string public  symbol;\r\n    address public  admin;\r\n    uint256 public  counter = 10;\r\n    \r\n    \r\n    uint256[]                      public allTokens; \r\n    mapping(uint256 => uint256)    public allTokensIndex;      \r\n    mapping(address => uint256[])  public ownedTokens;  \r\n    mapping(uint256 => uint256)    public ownedTokensIndex;     \r\n    mapping(uint256 => address)    public ownerOfToken;\r\n    mapping(uint256 => uint256)    public templateOf; // bundle NTF's\r\n    mapping(uint256 => uint256[])  public typedTokens; // get list per bundle\r\n    mapping(uint256 => uint256)    public typedTokensIndex;     \r\n    \r\n    \r\n    mapping(address => mapping( uint256 => uint256))  public ownedTypedTokens;  \r\n    \r\n    \r\n    \r\n    struct Template {\r\n        string  name;\r\n        string  cid;\r\n        uint256 managedBy; // template id of manager\r\n        bool SelfMint;\r\n        bool SelfBurn; \r\n        bool AllowTransfer;\r\n    }\r\n\r\n    Template[] public templates;\r\n    // Base URI\r\n    string private baseURI;\r\n    \r\n    address public receivedOperator;    // public to easily check\r\n    address public receivedFrom;        // public to easily check\r\n    uint256 public receivedTokenId;     // public to easily check\r\n    bytes   public receivedData;        // public to easily check\r\n    bytes4 internal constant ERC721_BASE_INTERFACE_SIGNATURE = 0x80ac58cd;\r\n    bytes4 internal constant ERC721_METADATA_INTERFACE_SIGNATURE = 0x5b5e139f;\r\n    bytes4 internal constant ERC721_ENUMERABLE_INTERFACE_SIGNATURE = 0x780e9d63;\r\n    bytes4 internal constant ONERC721RECEIVED_FUNCTION_SIGNATURE = 0x150b7a02;\r\n\r\n    uint256 public constant ADMINTOKEN   = 0;    \r\n    uint256 public constant CONTRACTINFOTOKEN = 1;\r\n    uint256 public constant BADGECREATORTOKEN = 2;\r\n\r\n    modifier tokenExists(uint256 _tokenId) {\r\n        require(uint256(ownerOfToken[_tokenId]) != 0);\r\n        _;\r\n    }\r\n    \r\n    modifier isAdmin {\r\n        require(msg.sender == admin || (ownedTypedTokens[msg.sender][ADMINTOKEN] > 0),\"Must have admin role to create token\");\r\n        _;\r\n    }\r\n    \r\n    modifier isBadgeCreator {\r\n        require(msg.sender == admin || (ownedTypedTokens[msg.sender][ADMINTOKEN] > 0) || (ownedTypedTokens[msg.sender][BADGECREATORTOKEN] > 0),\"Must have admin or badge creator role \");\r\n        _;\r\n    }\r\n    \r\n    modifier isManager(uint256 _templateId) {\r\n        require(msg.sender == admin || \r\n            (ownedTypedTokens[msg.sender][ADMINTOKEN] > 0) || (ownedTypedTokens[msg.sender][BADGECREATORTOKEN] > 0) || (ownedTypedTokens[msg.sender][templates[_templateId].managedBy] > 0),\"Must have admin, badgecreator or manager role for the badge\");\r\n        _;\r\n        \r\n    }        \r\n    \r\n    \r\n    constructor (string memory _name, string memory _symbol, string memory _baseURI) {\r\n        admin = msg.sender;\r\n        name = _name;\r\n        symbol = _symbol;\r\n        baseURI = _baseURI;\r\n    }\r\n    function onERC721Received(address _operator, address _from, uint256 _tokenId, bytes memory _data) public returns(bytes4) {\r\n        receivedOperator = _operator;\r\n        receivedFrom     = _from;\r\n        receivedTokenId  = _tokenId;\r\n        receivedData     = _data;\r\n        return ONERC721RECEIVED_FUNCTION_SIGNATURE;    \r\n    } \r\n    modifier allowedToTransfer(address _from, address _to, uint256 _tokenId) {\r\n        require(ownerOfToken[_tokenId] == _from);\r\n        require(uint256(_to) != 0); //not allowed to burn in transfer method\r\n        _;\r\n    }\r\n   \r\n    function settleTransfer(address _from, address _to, uint256 _tokenId) internal {\r\n        removeToken(_from, _tokenId);\r\n        addToken(_to, _tokenId);\r\n        emit Transfer(_from, _to, _tokenId);\r\n    }\r\n    function addToken(address _to, uint256 _tokenId) internal {\r\n        allTokens.push(_tokenId);\r\n        allTokensIndex[_tokenId] = allTokens.length-1;\r\n        ownerOfToken[_tokenId] = _to;        \r\n        ownedTokens[_to].push(_tokenId);\r\n        ownedTokensIndex[_tokenId] = ownedTokens[_to].length-1;\r\n        \r\n        uint256 templateId=templateOf[_tokenId];\r\n        ownedTypedTokens[_to][templateId]++;\r\n    }\r\n    function removeToken(address _from, uint256 _tokenId) internal {\r\n        uint256 allIndex = allTokensIndex[_tokenId];\r\n        uint256 allTokensLength = allTokens.length;\r\n        allTokens[allIndex] = allTokens[allTokensLength - 1];\r\n        allTokensIndex[allTokens[allTokensLength-1]] = allIndex;\r\n        allTokens.pop();\r\n        \r\n        uint256 ownerIndex = ownedTokensIndex[_tokenId];\r\n        uint256 ownerLength = ownedTokens[_from].length;\r\n        ownedTokens[_from][ownerIndex] = ownedTokens[_from][ownerLength-1];\r\n        ownedTokensIndex[ownedTokens[_from][ownerLength-1]] = ownerIndex;\r\n        ownedTokens[_from].pop();\r\n        uint256 templateId=templateOf[_tokenId];\r\n        ownedTypedTokens[_from][templateId]++;\r\n         \r\n        delete ownerOfToken[_tokenId];\r\n    }\r\n    \r\n    // public functions -------------------------------------------------------------------------------\r\n    \r\n    function transferFrom(address _from, address _to, uint256 _tokenId) public payable\r\n    tokenExists(_tokenId)\r\n    allowedToTransfer(_from, _to, _tokenId) {       \r\n        settleTransfer(_from, _to, _tokenId);\r\n    }\r\n    function safeTransferFrom(address _from, address _to, uint256 _tokenId, bytes memory data) public payable\r\n    tokenExists(_tokenId)\r\n    allowedToTransfer(_from, _to, _tokenId) {\r\n        settleTransfer(_from, _to, _tokenId);\r\n        uint256 size;\r\n        assembly { size := extcodesize(_to) }  // solhint-disable-line no-inline-assembly\r\n        if (size > 0) {\r\n            require(KOIOSNFT(_to).onERC721Received(msg.sender, _from, _tokenId, data) == ONERC721RECEIVED_FUNCTION_SIGNATURE);\r\n        }\r\n    }\r\n    function safeTransferFrom(address _from, address _to, uint256 _tokenId) public payable\r\n    tokenExists(_tokenId)\r\n    allowedToTransfer(_from, _to, _tokenId) {\r\n        settleTransfer(_from, _to, _tokenId);\r\n        uint256 size;\r\n        assembly { size := extcodesize(_to) }  // solhint-disable-line no-inline-assembly\r\n        if (size > 0) {\r\n            require(KOIOSNFT(_to).onERC721Received(msg.sender, _from, _tokenId, \"\") == ONERC721RECEIVED_FUNCTION_SIGNATURE);\r\n        }\r\n    }\r\n    function totalSupply() public view returns (uint256) {\r\n        return allTokens.length;\r\n    }\r\n    function ownerOf(uint256 _tokenId) external view\r\n    tokenExists(_tokenId) returns (address) {\r\n        return ownerOfToken[_tokenId];\r\n    }\r\n    function tokenByIndex(uint256 _index) external view returns (uint256) {\r\n        require(_index < allTokens.length);\r\n        return allTokens[_index];\r\n    }\r\n    function tokenOfOwnerByIndex(address _owner, uint256 _index) external view returns (uint256 _tokenId) {\r\n        require(_index < ownedTokens[_owner].length);\r\n        return ownedTokens[_owner][_index];\r\n    }\r\n    function balanceOf(address _owner) external view returns (uint256) {\r\n        require(uint256(_owner) != 0);\r\n        return ownedTokens[_owner].length;\r\n    }\r\n\r\n    function tokensOfType(uint256 _type) external view returns (uint256) {\r\n        return typedTokens[_type].length;\r\n    }\r\n    function tokenOfTypeByIndex(uint256 _type, uint256 _index) external view returns (uint256 _tokenId) {\r\n        require(_index < typedTokens[_type].length);\r\n        return typedTokens[_type][_index];\r\n    }\r\n    \r\n    function tokenURI(uint256 _tokenId) public view returns (string memory) {\r\n        uint256 templateId=templateOf[_tokenId];\r\n        return string(abi.encodePacked(baseURI, templates[templateId].cid));\r\n    }\r\n    \r\n    \r\n    \r\n    function supportsInterface(bytes4 interfaceID) external pure returns (bool) {\r\n        if (interfaceID == ERC721_BASE_INTERFACE_SIGNATURE ||\r\n        interfaceID == ERC721_METADATA_INTERFACE_SIGNATURE ||\r\n        interfaceID == ERC721_ENUMERABLE_INTERFACE_SIGNATURE) {\r\n            return true;\r\n        } else { return false; }\r\n    }\r\n    \r\n    \r\n    function createToken(address _to,uint256 _templateId) public isManager( _templateId) {\r\n        \r\n        templateOf[counter]=_templateId;\r\n        typedTokens[_templateId].push(counter);\r\n        typedTokensIndex[_templateId] = typedTokens[_templateId].length-1;\r\n        \r\n        addToken(_to, counter);\r\n        emit Transfer(address(0), _to, counter);\r\n        counter += 1; // every new token gets a new ID\r\n    }\r\n    \r\n    \r\n    function createTokens(address[] memory _to,uint256 _templateId) public isManager( _templateId) {\r\n        uint arrayLength = _to.length;\r\n        for (uint i = 0; i < arrayLength; i++) \r\n            createToken(_to[i],_templateId);        \r\n    }\r\n    \r\n    \r\n    function burnToken(uint256 _tokenId) public {\r\n        require(ownerOfToken[_tokenId] == msg.sender,\"Token should be in control of owner\");\r\n        uint256 templateId=templateOf[_tokenId];\r\n         \r\n        uint256 typedIndex = typedTokensIndex[_tokenId];\r\n        uint256 typedLength = typedTokens[templateId].length;\r\n        typedTokens[templateId][typedIndex] = typedTokens[templateId][typedLength-1];\r\n        typedTokensIndex[typedTokens[templateId][typedLength-1]] = typedIndex;\r\n        typedTokens[templateId].pop();\r\n        \r\n        removeToken(msg.sender, _tokenId);\r\n        emit Transfer(msg.sender, address(0), _tokenId);\r\n    }\r\n\r\n    function CreateNewBadge(string memory _name, string memory _cid, uint256 _managedBy, bool _SelfMint, bool _SelfBurn, bool _AllowTransfer) public  isBadgeCreator returns (uint256)  {        \r\n       templates.push(Template(_name, _cid,  _managedBy, _SelfMint,  _SelfBurn,  _AllowTransfer)); \r\n       createToken(admin,templates.length-1); // give everything also to admin       \r\n       \r\n       emit NewBadge(templates.length-1,_name);\r\n       return templates.length-1;\r\n    }\r\n    \r\n    \r\n    function UpdateBadge(uint256 _templateid,string memory _name, string memory _cid, uint256 _managedBy, bool _SelfMint, bool _SelfBurn, bool _AllowTransfer) public isAdmin {       \r\n       templates[_templateid]=Template(_name, _cid, _managedBy, _SelfMint,  _SelfBurn,  _AllowTransfer);\r\n    }\r\n    \r\n    function GetTemplateId(uint256 _tokenId) public view returns (uint256) {\r\n        return templateOf[_tokenId];\r\n    }\r\n    \r\n    function GetTemplateInfo(uint256 _templateid) public view returns ( Template memory)   {       \r\n       return templates[_templateid];\r\n    }\r\n    \r\n    function nrTemplates() external view returns (uint256) {\r\n        return templates.length;\r\n    }\r\n    function setBaseURI(string memory _baseURI) public isAdmin {\r\n         baseURI = _baseURI;\r\n    }\r\n    \r\n    function contractURI() public view returns (string memory) { // for opensea, use the template#0\r\n        return string(abi.encodePacked(baseURI, templates[CONTRACTINFOTOKEN].cid));\r\n    }\r\n\r\n\r\n    function checkIsAdmin() public view returns (bool) {\r\n        return msg.sender == admin || (ownedTypedTokens[msg.sender][ADMINTOKEN] > 0);\r\n    }\r\n    \r\n    function checkIsBadgeCreator() public view returns (bool)  {\r\n        return msg.sender == admin || (ownedTypedTokens[msg.sender][ADMINTOKEN] > 0) || (ownedTypedTokens[msg.sender][BADGECREATORTOKEN] > 0);\r\n    }\r\n    \r\n    function checkIsManager(uint256 _templateId) public view returns (bool)  {\r\n        return msg.sender == admin || (ownedTypedTokens[msg.sender][ADMINTOKEN] > 0) || (ownedTypedTokens[msg.sender][templates[_templateId].managedBy] > 0);\r\n\r\n    }        \r\n    \r\n    function destroy() public  { \r\n        require(msg.sender == admin,\"Must be admin to destroy\");\r\n        selfdestruct(msg.sender);\r\n    }\r\n\r\n\r\n        \r\n         \r\n}\r\n",
  "sourcePath": "W:/gpersoon/koios/lib/smartcontracts/contracts/KOIOSNFT.sol",
  "compiler": {
    "name": "solc",
    "version": "0.7.0+commit.9e61f92b.Emscripten.clang"
  },
  "schemaVersion": "3.2.3",
  "updatedAt": "2020-08-11T17:21:19.717Z",
  "networkType": "ethereum",
  "devdoc": {
    "kind": "dev",
    "methods": {},
    "version": 1
  },
  "userdoc": {
    "kind": "user",
    "methods": {},
    "version": 1
  }
}